{
  "_format": "hh-sol-artifact-1",
  "contractName": "RIFGateway",
  "sourceName": "contracts/core/RIFGateway.sol",
  "abi": [
    {
      "inputs": [
        {
          "internalType": "contract ServiceTypeManager",
          "name": "stm",
          "type": "address"
        },
        {
          "internalType": "contract IFeeManager",
          "name": "feeManager",
          "type": "address"
        }
      ],
      "stateMutability": "nonpayable",
      "type": "constructor"
    },
    {
      "inputs": [
        {
          "internalType": "contract Service",
          "name": "service",
          "type": "address"
        }
      ],
      "name": "DuplicatedService",
      "type": "error"
    },
    {
      "inputs": [
        {
          "internalType": "address",
          "name": "provider",
          "type": "address"
        }
      ],
      "name": "InvalidProvider",
      "type": "error"
    },
    {
      "inputs": [
        {
          "internalType": "address",
          "name": "provider",
          "type": "address"
        }
      ],
      "name": "InvalidProviderAddress",
      "type": "error"
    },
    {
      "inputs": [
        {
          "internalType": "contract Service",
          "name": "service",
          "type": "address"
        }
      ],
      "name": "InvalidService",
      "type": "error"
    },
    {
      "inputs": [
        {
          "internalType": "contract Service",
          "name": "service",
          "type": "address"
        },
        {
          "internalType": "bytes4",
          "name": "serviceType",
          "type": "bytes4"
        }
      ],
      "name": "InvalidServiceImplementation",
      "type": "error"
    },
    {
      "inputs": [
        {
          "internalType": "string",
          "name": "nonConformityErrMsg",
          "type": "string"
        }
      ],
      "name": "NonConformity",
      "type": "error"
    },
    {
      "anonymous": false,
      "inputs": [
        {
          "indexed": false,
          "internalType": "address",
          "name": "subscriber",
          "type": "address"
        },
        {
          "indexed": false,
          "internalType": "address",
          "name": "service",
          "type": "address"
        }
      ],
      "name": "NewSubscription",
      "type": "event"
    },
    {
      "anonymous": false,
      "inputs": [
        {
          "indexed": true,
          "internalType": "address",
          "name": "previousOwner",
          "type": "address"
        },
        {
          "indexed": true,
          "internalType": "address",
          "name": "newOwner",
          "type": "address"
        }
      ],
      "name": "OwnershipTransferred",
      "type": "event"
    },
    {
      "anonymous": false,
      "inputs": [
        {
          "indexed": false,
          "internalType": "address",
          "name": "provider",
          "type": "address"
        },
        {
          "indexed": false,
          "internalType": "address",
          "name": "service",
          "type": "address"
        }
      ],
      "name": "ServiceAdded",
      "type": "event"
    },
    {
      "anonymous": false,
      "inputs": [
        {
          "indexed": false,
          "internalType": "address",
          "name": "provider",
          "type": "address"
        },
        {
          "indexed": false,
          "internalType": "address",
          "name": "service",
          "type": "address"
        }
      ],
      "name": "ServiceValidated",
      "type": "event"
    },
    {
      "anonymous": false,
      "inputs": [
        {
          "indexed": false,
          "internalType": "address",
          "name": "provider",
          "type": "address"
        }
      ],
      "name": "ValidationRequested",
      "type": "event"
    },
    {
      "inputs": [
        {
          "internalType": "contract Service",
          "name": "service",
          "type": "address"
        }
      ],
      "name": "addService",
      "outputs": [],
      "stateMutability": "nonpayable",
      "type": "function"
    },
    {
      "inputs": [],
      "name": "getServicesAndProviders",
      "outputs": [
        {
          "internalType": "contract Service[]",
          "name": "",
          "type": "address[]"
        },
        {
          "components": [
            {
              "internalType": "address",
              "name": "provider",
              "type": "address"
            },
            {
              "internalType": "bool",
              "name": "validated",
              "type": "bool"
            }
          ],
          "internalType": "struct Provider[]",
          "name": "",
          "type": "tuple[]"
        }
      ],
      "stateMutability": "view",
      "type": "function"
    },
    {
      "inputs": [
        {
          "internalType": "address",
          "name": "subscriber",
          "type": "address"
        }
      ],
      "name": "getSubscriptions",
      "outputs": [
        {
          "components": [
            {
              "internalType": "address",
              "name": "service",
              "type": "address"
            },
            {
              "internalType": "uint256",
              "name": "listingId",
              "type": "uint256"
            }
          ],
          "internalType": "struct ISubscriptionReporter.Subscription[]",
          "name": "",
          "type": "tuple[]"
        }
      ],
      "stateMutability": "view",
      "type": "function"
    },
    {
      "inputs": [],
      "name": "owner",
      "outputs": [
        {
          "internalType": "address",
          "name": "",
          "type": "address"
        }
      ],
      "stateMutability": "view",
      "type": "function"
    },
    {
      "inputs": [
        {
          "internalType": "contract Service",
          "name": "service",
          "type": "address"
        }
      ],
      "name": "removeService",
      "outputs": [],
      "stateMutability": "nonpayable",
      "type": "function"
    },
    {
      "inputs": [],
      "name": "renounceOwnership",
      "outputs": [],
      "stateMutability": "nonpayable",
      "type": "function"
    },
    {
      "inputs": [
        {
          "internalType": "address",
          "name": "provider",
          "type": "address"
        }
      ],
      "name": "requestValidation",
      "outputs": [],
      "stateMutability": "nonpayable",
      "type": "function"
    },
    {
      "inputs": [
        {
          "internalType": "address",
          "name": "subscriber",
          "type": "address"
        },
        {
          "internalType": "address",
          "name": "service",
          "type": "address"
        },
        {
          "internalType": "uint256",
          "name": "listingId",
          "type": "uint256"
        }
      ],
      "name": "subscribe",
      "outputs": [],
      "stateMutability": "nonpayable",
      "type": "function"
    },
    {
      "inputs": [
        {
          "internalType": "address",
          "name": "",
          "type": "address"
        },
        {
          "internalType": "uint256",
          "name": "",
          "type": "uint256"
        }
      ],
      "name": "subscriptions",
      "outputs": [
        {
          "internalType": "address",
          "name": "service",
          "type": "address"
        },
        {
          "internalType": "uint256",
          "name": "listingId",
          "type": "uint256"
        }
      ],
      "stateMutability": "view",
      "type": "function"
    },
    {
      "inputs": [
        {
          "internalType": "address",
          "name": "newOwner",
          "type": "address"
        }
      ],
      "name": "transferOwnership",
      "outputs": [],
      "stateMutability": "nonpayable",
      "type": "function"
    },
    {
      "inputs": [
        {
          "internalType": "address",
          "name": "provider",
          "type": "address"
        }
      ],
      "name": "validateProvider",
      "outputs": [],
      "stateMutability": "nonpayable",
      "type": "function"
    }
  ],
  "bytecode": "0x608060405234801561001057600080fd5b50604051620013db380380620013db833981016040819052610031916100d9565b8061003b33610071565b600280546001600160a01b039283166001600160a01b031991821617909155600580549490921693169290921790915550610113565b600080546001600160a01b038381166001600160a01b0319831681178455604051919092169283917f8be0079c531659141344cd1fd0a4f28419497f9722a3daafe3b4186f6b6457e09190a35050565b6001600160a01b03811681146100d657600080fd5b50565b600080604083850312156100ec57600080fd5b82516100f7816100c1565b6020840151909250610108816100c1565b809150509250929050565b6112b880620001236000396000f3fe608060405234801561001057600080fd5b50600436106100c95760003560e01c8063623da3d1116100815780637c6599f81161005b5780637c6599f8146101955780638da5cb5b146101a8578063f2fde38b146101c357600080fd5b8063623da3d114610148578063715018a61461017a5780637288ffb31461018257600080fd5b80635372a9ce116100b25780635372a9ce146100f65780635d6a4413146101095780635e2f76fd1461013257600080fd5b80631b305173146100ce57806327a40b4b146100e3575b600080fd5b6100e16100dc366004610fd1565b6101d6565b005b6100e16100f1366004610fd1565b61049e565b6100e1610104366004610fd1565b610566565b61011c610117366004610fd1565b610a68565b6040516101299190610ff5565b60405180910390f35b61013a610af3565b60405161012992919061104d565b61015b6101563660046110e7565b610bd0565b604080516001600160a01b039093168352602083019190915201610129565b6100e1610c16565b6100e1610190366004611113565b610c2a565b6100e16101a3366004610fd1565b610c79565b6000546040516001600160a01b039091168152602001610129565b6100e16101d1366004610fd1565b610d4e565b806001600160a01b0316638da5cb5b6040518163ffffffff1660e01b8152600401602060405180830381865afa158015610214573d6000803e3d6000fd5b505050506040513d601f19601f820116820180604052508101906102389190611154565b6001600160a01b0316336001600160a01b03161461027057604051632cf1a30760e11b81523360048201526024015b60405180910390fd5b6001600160a01b03811660009081526007602052604090205460ff166102b45760405163cdef864b60e01b81526001600160a01b0382166004820152602401610267565b6006546000906102c690600190611187565b905060005b6006546102da906002906111a0565b811161049957826001600160a01b0316600682815481106102fd576102fd6111c2565b6000918252602090912001546001600160a01b0316036103f6576006805461032790600190611187565b81548110610337576103376111c2565b600091825260209091200154600680546001600160a01b039092169183908110610363576103636111c2565b9060005260206000200160006101000a8154816001600160a01b0302191690836001600160a01b0316021790555060068054806103a2576103a26111d8565b600082815260208082208301600019908101805473ffffffffffffffffffffffffffffffffffffffff191690559092019092556001600160a01b03851682526007905260409020805460ff19169055505050565b826001600160a01b031660068381548110610413576104136111c2565b6000918252602090912001546001600160a01b031603610479576006805461043d90600190611187565b8154811061044d5761044d6111c2565b600091825260209091200154600680546001600160a01b039092169184908110610363576103636111c2565b81610483816111ee565b925050808061049190611205565b9150506102cb565b505050565b6104a6610ddb565b6001600160a01b03811660009081526004602052604081205490036104e957604051639627159960e01b81526001600160a01b0382166004820152602401610267565b6001600160a01b038116600090815260046020526040902054600190600390610513908390611187565b81548110610523576105236111c2565b60009182526020909120018054911515600160a01b027fffffffffffffffffffffff00ffffffffffffffffffffffffffffffffffffffff90921691909117905550565b6001600160a01b03811660009081526007602052604090205460ff16156105c4576040517f1ff1a37d0000000000000000000000000000000000000000000000000000000081526001600160a01b0382166004820152602401610267565b6040517f01ffc9a70000000000000000000000000000000000000000000000000000000080825260048201526001600160a01b038216906301ffc9a790602401602060405180830381865afa158015610621573d6000803e3d6000fd5b505050506040513d601f19601f82011682018060405250810190610645919061121e565b6106d1576040517fc06d352f00000000000000000000000000000000000000000000000000000000815260206004820152602160248201527f5365727669636520646f6573206e6f7420696d706c656d656e7420455243313660448201527f35000000000000000000000000000000000000000000000000000000000000006064820152608401610267565b600560009054906101000a90046001600160a01b03166001600160a01b03166301ffc9a7826001600160a01b031663d4604b026040518163ffffffff1660e01b8152600401602060405180830381865afa158015610733573d6000803e3d6000fd5b505050506040513d601f19601f820116820180604052508101906107579190611240565b6040517fffffffff0000000000000000000000000000000000000000000000000000000060e084901b81168252919091166004820152602401602060405180830381865afa1580156107ad573d6000803e3d6000fd5b505050506040513d601f19601f820116820180604052508101906107d1919061121e565b61089d5780816001600160a01b031663d4604b026040518163ffffffff1660e01b8152600401602060405180830381865afa158015610814573d6000803e3d6000fd5b505050506040513d601f19601f820116820180604052508101906108389190611240565b6040517fabd6a3b30000000000000000000000000000000000000000000000000000000081526001600160a01b0390921660048301527fffffffff00000000000000000000000000000000000000000000000000000000166024820152604401610267565b6000816001600160a01b0316638da5cb5b6040518163ffffffff1660e01b8152600401602060405180830381865afa1580156108dd573d6000803e3d6000fd5b505050506040513d601f19601f820116820180604052508101906109019190611154565b90506001600160a01b03811661093557604051632cf1a30760e11b81526001600160a01b0382166004820152602401610267565b6001600160a01b03811660009081526004602052604081205490036109f3576040805180820182526001600160a01b03808416808352600060208085018281526003805460018101825581855296517fc2575a0e9e593c00f959f8c92f12db2869c3395a3b0502d05e2516446f71f85b909701805492511515600160a01b027fffffffffffffffffffffff00000000000000000000000000000000000000000090931697909616969096171790935592549083526004909152919020555b506006805460018181019092557ff652222313e28459528d920b65115c16c04f3efc82aaedc97be59f3f377c0d3f0180546001600160a01b0390931673ffffffffffffffffffffffffffffffffffffffff1990931683179055600091825260076020526040909120805460ff19169091179055565b6001600160a01b0381166000908152600160209081526040808320805482518185028101850190935280835260609492939192909184015b82821015610ae8576000848152602090819020604080518082019091526002850290910180546001600160a01b03168252600190810154828401529083529092019101610aa0565b505050509050919050565b6060806006600381805480602002602001604051908101604052809291908181526020018280548015610b4f57602002820191906000526020600020905b81546001600160a01b03168152600190910190602001808311610b31575b5050505050915080805480602002602001604051908101604052809291908181526020016000905b82821015610bc257600084815260209081902060408051808201909152908401546001600160a01b0381168252600160a01b900460ff16151581830152825260019092019101610b77565b505050509050915091509091565b60016020528160005260406000208181548110610bec57600080fd5b6000918252602090912060029091020180546001909101546001600160a01b039091169250905082565b610c1e610ddb565b610c286000610e35565b565b6001600160a01b03821660009081526007602052604090205460ff16610c6e5760405163cdef864b60e01b81526001600160a01b0383166004820152602401610267565b610499838383610e92565b6001600160a01b0381166000908152600460205260408120549003610cbc57604051639627159960e01b81526001600160a01b0382166004820152602401610267565b6001600160a01b038116600090815260046020526040902054600390610ce490600190611187565b81548110610cf457610cf46111c2565b600091825260209091200154600160a01b900460ff16610d4b576040516001600160a01b03821681527f240c264a21c2718c9fc2e96638b07d52c28470ec9d4d069d670cee203e35936a9060200160405180910390a15b50565b610d56610ddb565b6001600160a01b038116610dd25760405162461bcd60e51b815260206004820152602660248201527f4f776e61626c653a206e6577206f776e657220697320746865207a65726f206160448201527f64647265737300000000000000000000000000000000000000000000000000006064820152608401610267565b610d4b81610e35565b6000546001600160a01b03163314610c285760405162461bcd60e51b815260206004820181905260248201527f4f776e61626c653a2063616c6c6572206973206e6f7420746865206f776e65726044820152606401610267565b600080546001600160a01b0383811673ffffffffffffffffffffffffffffffffffffffff19831681178455604051919092169283917f8be0079c531659141344cd1fd0a4f28419497f9722a3daafe3b4186f6b6457e09190a35050565b6001600160a01b03838116600090815260016020818152604080842081518083018352888716808252818501898152835480880185559388529490962090516002928302909101805473ffffffffffffffffffffffffffffffffffffffff191691881691909117815592519290930191909155905490517fa66df70100000000000000000000000000000000000000000000000000000000815260048101929092529091169063a66df70190602401600060405180830381600087803b158015610f5b57600080fd5b505af1158015610f6f573d6000803e3d6000fd5b5050604080516001600160a01b038088168252861660208201527f3a0b5076ece6f2c8be8457bb8f3245313ca00f236efcc25031b8376662c224cf935001905060405180910390a1505050565b6001600160a01b0381168114610d4b57600080fd5b600060208284031215610fe357600080fd5b8135610fee81610fbc565b9392505050565b602080825282518282018190526000919060409081850190868401855b8281101561104057815180516001600160a01b03168552860151868501529284019290850190600101611012565b5091979650505050505050565b60408082528351828201819052600091906020906060850190828801855b828110156110905781516001600160a01b03168452928401929084019060010161106b565b5050508481038286015285518082528683019183019060005b818110156110d957835180516001600160a01b0316845285015115158584015292840192918501916001016110a9565b509098975050505050505050565b600080604083850312156110fa57600080fd5b823561110581610fbc565b946020939093013593505050565b60008060006060848603121561112857600080fd5b833561113381610fbc565b9250602084013561114381610fbc565b929592945050506040919091013590565b60006020828403121561116657600080fd5b8151610fee81610fbc565b634e487b7160e01b600052601160045260246000fd5b8181038181111561119a5761119a611171565b92915050565b6000826111bd57634e487b7160e01b600052601260045260246000fd5b500490565b634e487b7160e01b600052603260045260246000fd5b634e487b7160e01b600052603160045260246000fd5b6000816111fd576111fd611171565b506000190190565b60006001820161121757611217611171565b5060010190565b60006020828403121561123057600080fd5b81518015158114610fee57600080fd5b60006020828403121561125257600080fd5b81517fffffffff0000000000000000000000000000000000000000000000000000000081168114610fee57600080fdfea2646970667358221220d51c1ffcabae7983c7d1d70e7c17d3888d178ad0cc393b9e23730439f1b30e5064736f6c63430008100033",
  "linkReferences": {},
  "deployedLinkReferences": {}
}