{
  "_format": "hh-sol-artifact-1",
  "contractName": "SmartWallet",
  "sourceName": "contracts/smartwallet/SmartWallet.sol",
  "abi": [
    {
      "inputs": [
        {
          "internalType": "address",
          "name": "owner",
          "type": "address"
        }
      ],
      "stateMutability": "nonpayable",
      "type": "constructor"
    },
    {
      "inputs": [
        {
          "internalType": "uint256",
          "name": "nonce",
          "type": "uint256"
        }
      ],
      "name": "InvalidBlockForNonce",
      "type": "error"
    },
    {
      "inputs": [
        {
          "internalType": "address",
          "name": "executor",
          "type": "address"
        }
      ],
      "name": "InvalidExecutor",
      "type": "error"
    },
    {
      "inputs": [
        {
          "internalType": "uint256",
          "name": "nonce",
          "type": "uint256"
        }
      ],
      "name": "InvalidNonce",
      "type": "error"
    },
    {
      "inputs": [],
      "name": "ReadNoLongerValid",
      "type": "error"
    },
    {
      "inputs": [
        {
          "internalType": "bytes",
          "name": "data",
          "type": "bytes"
        }
      ],
      "name": "UnexpectedError",
      "type": "error"
    },
    {
      "inputs": [],
      "name": "DATA_VERSION_HASH",
      "outputs": [
        {
          "internalType": "bytes32",
          "name": "",
          "type": "bytes32"
        }
      ],
      "stateMutability": "view",
      "type": "function"
    },
    {
      "inputs": [],
      "name": "domainSeparator",
      "outputs": [
        {
          "internalType": "bytes32",
          "name": "",
          "type": "bytes32"
        }
      ],
      "stateMutability": "view",
      "type": "function"
    },
    {
      "inputs": [
        {
          "internalType": "bytes32",
          "name": "suffixData",
          "type": "bytes32"
        },
        {
          "components": [
            {
              "internalType": "address",
              "name": "from",
              "type": "address"
            },
            {
              "internalType": "uint256",
              "name": "nonce",
              "type": "uint256"
            },
            {
              "internalType": "address",
              "name": "executor",
              "type": "address"
            }
          ],
          "internalType": "struct IForwarder.ForwardRequest",
          "name": "req",
          "type": "tuple"
        },
        {
          "internalType": "bytes",
          "name": "sig",
          "type": "bytes"
        },
        {
          "internalType": "bytes",
          "name": "data",
          "type": "bytes"
        },
        {
          "internalType": "address",
          "name": "to",
          "type": "address"
        },
        {
          "internalType": "address",
          "name": "currency",
          "type": "address"
        }
      ],
      "name": "execute",
      "outputs": [
        {
          "internalType": "bool",
          "name": "success",
          "type": "bool"
        },
        {
          "internalType": "bytes",
          "name": "ret",
          "type": "bytes"
        }
      ],
      "stateMutability": "payable",
      "type": "function"
    },
    {
      "inputs": [],
      "name": "getDomainSeparator",
      "outputs": [
        {
          "internalType": "bytes32",
          "name": "",
          "type": "bytes32"
        }
      ],
      "stateMutability": "view",
      "type": "function"
    },
    {
      "inputs": [],
      "name": "nonce",
      "outputs": [
        {
          "internalType": "uint256",
          "name": "",
          "type": "uint256"
        }
      ],
      "stateMutability": "view",
      "type": "function"
    },
    {
      "inputs": [
        {
          "internalType": "bytes32",
          "name": "suffixData",
          "type": "bytes32"
        },
        {
          "components": [
            {
              "internalType": "address",
              "name": "from",
              "type": "address"
            },
            {
              "internalType": "uint256",
              "name": "nonce",
              "type": "uint256"
            },
            {
              "internalType": "address",
              "name": "executor",
              "type": "address"
            }
          ],
          "internalType": "struct IForwarder.ForwardRequest",
          "name": "req",
          "type": "tuple"
        },
        {
          "internalType": "bytes",
          "name": "sig",
          "type": "bytes"
        },
        {
          "internalType": "address",
          "name": "targetContract",
          "type": "address"
        },
        {
          "internalType": "bytes",
          "name": "data",
          "type": "bytes"
        }
      ],
      "name": "read",
      "outputs": [
        {
          "internalType": "bytes",
          "name": "",
          "type": "bytes"
        }
      ],
      "stateMutability": "view",
      "type": "function"
    },
    {
      "inputs": [
        {
          "internalType": "contract ISubscriber",
          "name": "subscriber",
          "type": "address"
        },
        {
          "internalType": "enum SubscriptionEvent",
          "name": "_event",
          "type": "uint8"
        }
      ],
      "name": "subscribe",
      "outputs": [],
      "stateMutability": "nonpayable",
      "type": "function"
    },
    {
      "inputs": [
        {
          "internalType": "contract ISubscriber",
          "name": "subscriber",
          "type": "address"
        },
        {
          "internalType": "enum SubscriptionEvent",
          "name": "_event",
          "type": "uint8"
        }
      ],
      "name": "unsubscribe",
      "outputs": [],
      "stateMutability": "nonpayable",
      "type": "function"
    },
    {
      "inputs": [
        {
          "internalType": "bytes32",
          "name": "suffixData",
          "type": "bytes32"
        },
        {
          "components": [
            {
              "internalType": "address",
              "name": "from",
              "type": "address"
            },
            {
              "internalType": "uint256",
              "name": "nonce",
              "type": "uint256"
            },
            {
              "internalType": "address",
              "name": "executor",
              "type": "address"
            }
          ],
          "internalType": "struct IForwarder.ForwardRequest",
          "name": "req",
          "type": "tuple"
        },
        {
          "internalType": "bytes",
          "name": "sig",
          "type": "bytes"
        }
      ],
      "name": "verify",
      "outputs": [],
      "stateMutability": "view",
      "type": "function"
    },
    {
      "stateMutability": "payable",
      "type": "receive"
    }
  ],
  "bytecode": "0x608060405234801561001057600080fd5b5060405161176f38038061176f83398101604081905261002f91610125565b604080516001600160601b0319606084901b16602080830191909152825180830360140181526034830184528051908201207fa7b53796fd2d99cb1f5ae019b54f9e024446c3d12b483f733ccc62ed04eb126a557f8b73c3c69bb8fe3d512ecc4cf759cc79239f7b179b0ffacaa9a75d522b39400f60548301527f2a973805329fb2d82e9972866bbe40b3d04293e648561113684f54a1665890a360748301527fc89efdaa54c0f20c7adf612882df0950f5a951637e0307cdcb4c672f298b8bc660948301524660b48301523060d4808401919091528351808403909101815260f4909201909252805191012060025550610155565b60006020828403121561013757600080fd5b81516001600160a01b038116811461014e57600080fd5b9392505050565b61160b806101646000396000f3fe60806040526004361061009a5760003560e01c8063affed0e011610069578063dce696651161004e578063dce6966514610197578063ed24911d146101b7578063f698da251461026d57600080fd5b8063affed0e01461013f578063b3104ef61461016357600080fd5b80630256dfac146100a65780636d08e1e6146100dc57806391633f28146100fe57806392fa3fb51461011f57600080fd5b366100a157005b600080fd5b3480156100b257600080fd5b506100c66100c1366004611159565b610283565b6040516100d39190611249565b60405180910390f35b3480156100e857600080fd5b506100fc6100f736600461125c565b610425565b005b61011161010c3660046112b7565b61046c565b6040516100d3929190611369565b34801561012b57600080fd5b506100fc61013a36600461138c565b61069b565b34801561014b57600080fd5b5061015560015481565b6040519081526020016100d3565b34801561016f57600080fd5b506101557fc89efdaa54c0f20c7adf612882df0950f5a951637e0307cdcb4c672f298b8bc681565b3480156101a357600080fd5b506100fc6101b236600461138c565b6107a3565b3480156101c357600080fd5b5061015560007f8b73c3c69bb8fe3d512ecc4cf759cc79239f7b179b0ffacaa9a75d522b39400f7f2a973805329fb2d82e9972866bbe40b3d04293e648561113684f54a1665890a37fc89efdaa54c0f20c7adf612882df0950f5a951637e0307cdcb4c672f298b8bc646604080516020810195909552840192909252606083015260808201523060a082015260c00160405160208183030381529060405280519060200120905090565b34801561027957600080fd5b5061015560025481565b60606102c6888888888080601f01602080910402602001604051908101604052809392919081815260200183838082843760009201919091525061088492505050565b7fa7b53796fd2d99cb1f5ae019b54f9e024446c3d12b483f733ccc62ed04eb126a546040516bffffffffffffffffffffffff193360601b166020820152603401604051602081830303815290604052805190602001201415801561032f57508660200151600154115b801561033d57504360035414155b15610374576040517f7adc4d4100000000000000000000000000000000000000000000000000000000815260040160405180910390fd5b600080856001600160a01b031685856040516103919291906113c9565b600060405180830381855afa9150503d80600081146103cc576040519150601f19603f3d011682016040523d82523d6000602084013e6103d1565b606091505b50915091508161041857806040517fd62cfc8600000000000000000000000000000000000000000000000000000000815260040161040f9190611249565b60405180910390fd5b9998505050505050505050565b610466848484848080601f01602080910402602001604051908101604052809392919081815260200183838082843760009201919091525061088492505050565b50505050565b6000606061047989610a53565b6104ba8a8a8a8a8080601f01602080910402602001604051908101604052809392919081815260200183838082843760009201919091525061088492505050565b836001600160a01b03163487876040516104d59291906113c9565b60006040518083038185875af1925050503d8060008114610512576040519150601f19603f3d011682016040523d82523d6000602084013e610517565b606091505b50909250905047801561055f5789516040516001600160a01b039091169082156108fc029083906000818181858888f1935050505015801561055d573d6000803e3d6000fd5b505b6001600160a01b0384161561068d576040517f70a082310000000000000000000000000000000000000000000000000000000081523060048201526000906001600160a01b038616906370a0823190602401602060405180830381865afa1580156105ce573d6000803e3d6000fd5b505050506040513d601f19601f820116820180604052508101906105f291906113d9565b9050801561068b578a516040517fa9059cbb0000000000000000000000000000000000000000000000000000000081526001600160a01b039182166004820152602481018390529086169063a9059cbb906044016020604051808303816000875af1158015610665573d6000803e3d6000fd5b505050506040513d601f19601f8201168201806040525081019061068991906113f2565b505b505b509850989650505050505050565b60005b60005481101561079e57826001600160a01b0316600082815481106106c5576106c5611414565b60009182526020909120600290910201546001600160a01b031614801561073457508180156106f6576106f661142a565b6000828154811061070957610709611414565b6000918252602090912060029091020154600160a01b900460ff1680156107325761073261142a565b145b1561078c576000818154811061074c5761074c611414565b600091825260208220600290910201805474ffffffffffffffffffffffffffffffffffffffffff19168155906107856001830182611031565b5050505050565b8061079681611440565b91505061069e565b505050565b60006040518060600160405280846001600160a01b031681526020018360008111156107d1576107d161142a565b8152604080516020818101909252600080825292820152835460018101855593825290819020825160029094020180546001600160a01b039094167fffffffffffffffffffffffff0000000000000000000000000000000000000000851681178255918301519293909291839174ffffffffffffffffffffffffffffffffffffffffff191617600160a01b83801561086b5761086b61142a565b02179055506040820151600182019061078590826114ef565b81516040516108ae919060200160609190911b6bffffffffffffffffffffffff1916815260140190565b604051602081830303815290604052805190602001206108ec7fa7b53796fd2d99cb1f5ae019b54f9e024446c3d12b483f733ccc62ed04eb126a5490565b146109395760405162461bcd60e51b815260206004820181905260248201527f4e6f7420746865206f776e6572206f662074686520536d61727457616c6c6574604482015260640161040f565b60408201516001600160a01b03163314610981576040517f15daef7b00000000000000000000000000000000000000000000000000000000815233600482015260240161040f565b610a07610a00826002546109958787610b2a565b80516020918201206040516109dc9392017f190100000000000000000000000000000000000000000000000000000000000081526002810192909252602282015260420190565b60405160208183030381529060405280519060200120610bc190919063ffffffff16565b8351610be5565b61079e5760405162461bcd60e51b815260206004820152601260248201527f5369676e6174757265206d69736d617463680000000000000000000000000000604482015260640161040f565b806020015160015403610a8c5760018054906000610a7083611440565b9091555050436003556040810151610a89906000610c40565b50565b8060200151600154118015610aa357504360035414155b15610ae25780602001516040517f658389f500000000000000000000000000000000000000000000000000000000815260040161040f91815260200190565b80602001516001541015610a895780602001516040517fb1373a6c00000000000000000000000000000000000000000000000000000000815260040161040f91815260200190565b60607fde79675bdbc9f19d046d9413d7f1ec5140674e00989c909d978c5705ba49566e826000015183602001518460400151604051602001610b8c939291906001600160a01b0393841681526020810192909252909116604082015260600190565b60408051601f1981840301815290829052610baa92916020016115af565b604051602081830303815290604052905092915050565b6000806000610bd08585610d49565b91509150610bdd81610d8e565b509392505050565b6000816001600160a01b0316836001600160a01b0316148015610c25575073dcc703c0e500b653ca82273b7bfad8045d85a4706001600160a01b03841614155b8015610c3957506001600160a01b03831615155b9392505050565b60005b60005481101561079e5760008181548110610c6057610c60611414565b6000918252602090912060029091020154600160a01b900460ff168015610c8957610c8961142a565b828015610c9857610c9861142a565b03610d375760008181548110610cb057610cb0611414565b60009182526020909120600290910201546040517f1c1b87720000000000000000000000000000000000000000000000000000000081526001600160a01b03858116600483015290911690631c1b877290602401600060405180830381600087803b158015610d1e57600080fd5b505af1158015610d32573d6000803e3d6000fd5b505050505b80610d4181611440565b915050610c43565b6000808251604103610d7f5760208301516040840151606085015160001a610d7387828585610f44565b94509450505050610d87565b506000905060025b9250929050565b6000816004811115610da257610da261142a565b03610daa5750565b6001816004811115610dbe57610dbe61142a565b03610e0b5760405162461bcd60e51b815260206004820152601860248201527f45434453413a20696e76616c6964207369676e61747572650000000000000000604482015260640161040f565b6002816004811115610e1f57610e1f61142a565b03610e6c5760405162461bcd60e51b815260206004820152601f60248201527f45434453413a20696e76616c6964207369676e6174757265206c656e67746800604482015260640161040f565b6003816004811115610e8057610e8061142a565b03610ed85760405162461bcd60e51b815260206004820152602260248201527f45434453413a20696e76616c6964207369676e6174757265202773272076616c604482015261756560f01b606482015260840161040f565b6004816004811115610eec57610eec61142a565b03610a895760405162461bcd60e51b815260206004820152602260248201527f45434453413a20696e76616c6964207369676e6174757265202776272076616c604482015261756560f01b606482015260840161040f565b6000807f7fffffffffffffffffffffffffffffff5d576e7357a4501ddfe92f46681b20a0831115610f7b5750600090506003611028565b8460ff16601b14158015610f9357508460ff16601c14155b15610fa45750600090506004611028565b6040805160008082526020820180845289905260ff881692820192909252606081018690526080810185905260019060a0016020604051602081039080840390855afa158015610ff8573d6000803e3d6000fd5b5050604051601f1901519150506001600160a01b03811661102157600060019250925050611028565b9150600090505b94509492505050565b50805461103d90611467565b6000825580601f1061104d575050565b601f016020900490600052602060002090810190610a8991905b8082111561107b5760008155600101611067565b5090565b634e487b7160e01b600052604160045260246000fd5b6001600160a01b0381168114610a8957600080fd5b6000606082840312156110bc57600080fd5b6040516060810181811067ffffffffffffffff821117156110df576110df61107f565b60405290508082356110f081611095565b815260208381013590820152604083013561110a81611095565b6040919091015292915050565b60008083601f84011261112957600080fd5b50813567ffffffffffffffff81111561114157600080fd5b602083019150836020828501011115610d8757600080fd5b600080600080600080600060e0888a03121561117457600080fd5b873596506111858960208a016110aa565b9550608088013567ffffffffffffffff808211156111a257600080fd5b6111ae8b838c01611117565b909750955060a08a013591506111c382611095565b90935060c089013590808211156111d957600080fd5b506111e68a828b01611117565b989b979a50959850939692959293505050565b60005b838110156112145781810151838201526020016111fc565b50506000910152565b600081518084526112358160208601602086016111f9565b601f01601f19169290920160200192915050565b602081526000610c39602083018461121d565b60008060008060a0858703121561127257600080fd5b8435935061128386602087016110aa565b9250608085013567ffffffffffffffff81111561129f57600080fd5b6112ab87828801611117565b95989497509550505050565b600080600080600080600080610100898b0312156112d457600080fd5b883597506112e58a60208b016110aa565b9650608089013567ffffffffffffffff8082111561130257600080fd5b61130e8c838d01611117565b909850965060a08b013591508082111561132757600080fd5b506113348b828c01611117565b90955093505060c089013561134881611095565b915060e089013561135881611095565b809150509295985092959890939650565b8215158152604060208201526000611384604083018461121d565b949350505050565b6000806040838503121561139f57600080fd5b82356113aa81611095565b91506020830135600181106113be57600080fd5b809150509250929050565b8183823760009101908152919050565b6000602082840312156113eb57600080fd5b5051919050565b60006020828403121561140457600080fd5b81518015158114610c3957600080fd5b634e487b7160e01b600052603260045260246000fd5b634e487b7160e01b600052602160045260246000fd5b60006001820161146057634e487b7160e01b600052601160045260246000fd5b5060010190565b600181811c9082168061147b57607f821691505b60208210810361149b57634e487b7160e01b600052602260045260246000fd5b50919050565b601f82111561079e57600081815260208120601f850160051c810160208610156114c85750805b601f850160051c820191505b818110156114e7578281556001016114d4565b505050505050565b815167ffffffffffffffff8111156115095761150961107f565b61151d816115178454611467565b846114a1565b602080601f831160018114611552576000841561153a5750858301515b600019600386901b1c1916600185901b1785556114e7565b600085815260208120601f198616915b8281101561158157888601518255948401946001909101908401611562565b508582101561159f5787850151600019600388901b60f8161c191681555b5050505050600190811b01905550565b828152600082516115c78160208501602087016111f9565b91909101602001939250505056fea26469706673582212207667af0500bbc843123156ecbe8d9d1d9c699678aa333b1774d5ca98ebd2fd5564736f6c63430008100033",
  "linkReferences": {},
  "deployedLinkReferences": {}
}