{
  "_format": "hh-sol-artifact-1",
  "contractName": "SmartWallet",
  "sourceName": "contracts/smartwallet/SmartWallet.sol",
  "abi": [
    {
      "inputs": [
        {
          "internalType": "address",
          "name": "owner",
          "type": "address"
        }
      ],
      "stateMutability": "nonpayable",
      "type": "constructor"
    },
    {
      "inputs": [
        {
          "internalType": "uint256",
          "name": "nonce",
          "type": "uint256"
        }
      ],
      "name": "InvalidBlockForNonce",
      "type": "error"
    },
    {
      "inputs": [
        {
          "internalType": "address",
          "name": "executor",
          "type": "address"
        }
      ],
      "name": "InvalidExecutor",
      "type": "error"
    },
    {
      "inputs": [
        {
          "internalType": "uint256",
          "name": "nonce",
          "type": "uint256"
        }
      ],
      "name": "InvalidNonce",
      "type": "error"
    },
    {
      "inputs": [],
      "name": "ReadNoLongerValid",
      "type": "error"
    },
    {
      "inputs": [
        {
          "internalType": "bytes",
          "name": "data",
          "type": "bytes"
        }
      ],
      "name": "UnexpectedError",
      "type": "error"
    },
    {
      "inputs": [],
      "name": "DATA_VERSION_HASH",
      "outputs": [
        {
          "internalType": "bytes32",
          "name": "",
          "type": "bytes32"
        }
      ],
      "stateMutability": "view",
      "type": "function"
    },
    {
      "inputs": [],
      "name": "domainSeparator",
      "outputs": [
        {
          "internalType": "bytes32",
          "name": "",
          "type": "bytes32"
        }
      ],
      "stateMutability": "view",
      "type": "function"
    },
    {
      "inputs": [
        {
          "internalType": "bytes32",
          "name": "suffixData",
          "type": "bytes32"
        },
        {
          "components": [
            {
              "internalType": "address",
              "name": "from",
              "type": "address"
            },
            {
              "internalType": "uint256",
              "name": "nonce",
              "type": "uint256"
            },
            {
              "internalType": "address",
              "name": "executor",
              "type": "address"
            }
          ],
          "internalType": "struct IForwarder.ForwardRequest",
          "name": "req",
          "type": "tuple"
        },
        {
          "internalType": "bytes",
          "name": "sig",
          "type": "bytes"
        },
        {
          "internalType": "bytes",
          "name": "data",
          "type": "bytes"
        },
        {
          "internalType": "address",
          "name": "to",
          "type": "address"
        },
        {
          "internalType": "address",
          "name": "currency",
          "type": "address"
        }
      ],
      "name": "execute",
      "outputs": [
        {
          "internalType": "bool",
          "name": "success",
          "type": "bool"
        },
        {
          "internalType": "bytes",
          "name": "ret",
          "type": "bytes"
        }
      ],
      "stateMutability": "payable",
      "type": "function"
    },
    {
      "inputs": [],
      "name": "getDomainSeparator",
      "outputs": [
        {
          "internalType": "bytes32",
          "name": "",
          "type": "bytes32"
        }
      ],
      "stateMutability": "view",
      "type": "function"
    },
    {
      "inputs": [],
      "name": "nonce",
      "outputs": [
        {
          "internalType": "uint256",
          "name": "",
          "type": "uint256"
        }
      ],
      "stateMutability": "view",
      "type": "function"
    },
    {
      "inputs": [
        {
          "internalType": "bytes32",
          "name": "suffixData",
          "type": "bytes32"
        },
        {
          "components": [
            {
              "internalType": "address",
              "name": "from",
              "type": "address"
            },
            {
              "internalType": "uint256",
              "name": "nonce",
              "type": "uint256"
            },
            {
              "internalType": "address",
              "name": "executor",
              "type": "address"
            }
          ],
          "internalType": "struct IForwarder.ForwardRequest",
          "name": "req",
          "type": "tuple"
        },
        {
          "internalType": "bytes",
          "name": "sig",
          "type": "bytes"
        },
        {
          "internalType": "address",
          "name": "targetContract",
          "type": "address"
        },
        {
          "internalType": "bytes",
          "name": "data",
          "type": "bytes"
        }
      ],
      "name": "read",
      "outputs": [
        {
          "internalType": "bytes",
          "name": "",
          "type": "bytes"
        }
      ],
      "stateMutability": "view",
      "type": "function"
    },
    {
      "inputs": [
        {
          "internalType": "bytes32",
          "name": "suffixData",
          "type": "bytes32"
        },
        {
          "components": [
            {
              "internalType": "address",
              "name": "from",
              "type": "address"
            },
            {
              "internalType": "uint256",
              "name": "nonce",
              "type": "uint256"
            },
            {
              "internalType": "address",
              "name": "executor",
              "type": "address"
            }
          ],
          "internalType": "struct IForwarder.ForwardRequest",
          "name": "req",
          "type": "tuple"
        },
        {
          "internalType": "bytes",
          "name": "sig",
          "type": "bytes"
        }
      ],
      "name": "verify",
      "outputs": [],
      "stateMutability": "view",
      "type": "function"
    },
    {
      "stateMutability": "payable",
      "type": "receive"
    }
  ],
  "bytecode": "0x608060405234801561001057600080fd5b5060405161121938038061121983398101604081905261002f91610125565b604080516001600160601b0319606084901b16602080830191909152825180830360140181526034830184528051908201207fa7b53796fd2d99cb1f5ae019b54f9e024446c3d12b483f733ccc62ed04eb126a557f8b73c3c69bb8fe3d512ecc4cf759cc79239f7b179b0ffacaa9a75d522b39400f60548301527f2a973805329fb2d82e9972866bbe40b3d04293e648561113684f54a1665890a360748301527fc89efdaa54c0f20c7adf612882df0950f5a951637e0307cdcb4c672f298b8bc660948301524660b48301523060d4808401919091528351808403909101815260f4909201909252805191012060015550610155565b60006020828403121561013757600080fd5b81516001600160a01b038116811461014e57600080fd5b9392505050565b6110b5806101646000396000f3fe6080604052600436106100745760003560e01c8063affed0e01161004e578063affed0e0146100f9578063b3104ef61461011d578063ed24911d14610151578063f698da251461020757600080fd5b80630256dfac146100805780636d08e1e6146100b657806391633f28146100d857600080fd5b3661007b57005b600080fd5b34801561008c57600080fd5b506100a061009b366004610da4565b61021d565b6040516100ad9190610e93565b60405180910390f35b3480156100c257600080fd5b506100d66100d1366004610ea6565b6103bf565b005b6100eb6100e6366004610f01565b610406565b6040516100ad929190610fae565b34801561010557600080fd5b5061010f60005481565b6040519081526020016100ad565b34801561012957600080fd5b5061010f7fc89efdaa54c0f20c7adf612882df0950f5a951637e0307cdcb4c672f298b8bc681565b34801561015d57600080fd5b5061010f60007f8b73c3c69bb8fe3d512ecc4cf759cc79239f7b179b0ffacaa9a75d522b39400f7f2a973805329fb2d82e9972866bbe40b3d04293e648561113684f54a1665890a37fc89efdaa54c0f20c7adf612882df0950f5a951637e0307cdcb4c672f298b8bc646604080516020810195909552840192909252606083015260808201523060a082015260c00160405160208183030381529060405280519060200120905090565b34801561021357600080fd5b5061010f60015481565b6060610260888888888080601f01602080910402602001604051908101604052809392919081815260200183838082843760009201919091525061063592505050565b7fa7b53796fd2d99cb1f5ae019b54f9e024446c3d12b483f733ccc62ed04eb126a546040516bffffffffffffffffffffffff193360601b16602082015260340160405160208183030381529060405280519060200120141580156102c957508660200151600054115b80156102d757504360025414155b1561030e576040517f7adc4d4100000000000000000000000000000000000000000000000000000000815260040160405180910390fd5b600080856001600160a01b0316858560405161032b929190610fd1565b600060405180830381855afa9150503d8060008114610366576040519150601f19603f3d011682016040523d82523d6000602084013e61036b565b606091505b5091509150816103b257806040517fd62cfc860000000000000000000000000000000000000000000000000000000081526004016103a99190610e93565b60405180910390fd5b9998505050505050505050565b610400848484848080601f01602080910402602001604051908101604052809392919081815260200183838082843760009201919091525061063592505050565b50505050565b6000606061041389610809565b6104548a8a8a8a8080601f01602080910402602001604051908101604052809392919081815260200183838082843760009201919091525061063592505050565b836001600160a01b031634878760405161046f929190610fd1565b60006040518083038185875af1925050503d80600081146104ac576040519150601f19603f3d011682016040523d82523d6000602084013e6104b1565b606091505b5090925090504780156104f95789516040516001600160a01b039091169082156108fc029083906000818181858888f193505050501580156104f7573d6000803e3d6000fd5b505b6001600160a01b03841615610627576040517f70a082310000000000000000000000000000000000000000000000000000000081523060048201526000906001600160a01b038616906370a0823190602401602060405180830381865afa158015610568573d6000803e3d6000fd5b505050506040513d601f19601f8201168201806040525081019061058c9190610fe1565b90508015610625578a516040517fa9059cbb0000000000000000000000000000000000000000000000000000000081526001600160a01b039182166004820152602481018390529086169063a9059cbb906044016020604051808303816000875af11580156105ff573d6000803e3d6000fd5b505050506040513d601f19601f820116820180604052508101906106239190610ffa565b505b505b509850989650505050505050565b815160405161065f919060200160609190911b6bffffffffffffffffffffffff1916815260140190565b6040516020818303038152906040528051906020012061069d7fa7b53796fd2d99cb1f5ae019b54f9e024446c3d12b483f733ccc62ed04eb126a5490565b146106ea5760405162461bcd60e51b815260206004820181905260248201527f4e6f7420746865206f776e6572206f662074686520536d61727457616c6c657460448201526064016103a9565b60408201516001600160a01b03163314610732576040517f15daef7b0000000000000000000000000000000000000000000000000000000081523360048201526024016103a9565b6107b86107b18260015461074687876108d2565b805160209182012060405161078d9392017f190100000000000000000000000000000000000000000000000000000000000081526002810192909252602282015260420190565b6040516020818303038152906040528051906020012061096990919063ffffffff16565b835161098d565b6108045760405162461bcd60e51b815260206004820152601260248201527f5369676e6174757265206d69736d61746368000000000000000000000000000060448201526064016103a9565b505050565b806020015160005403610831576000805490806108258361101c565b90915550504360025550565b806020015160005411801561084857504360025414155b156108875780602001516040517f658389f50000000000000000000000000000000000000000000000000000000081526004016103a991815260200190565b806020015160005410156108cf5780602001516040517fb1373a6c0000000000000000000000000000000000000000000000000000000081526004016103a991815260200190565b50565b60607fde79675bdbc9f19d046d9413d7f1ec5140674e00989c909d978c5705ba49566e826000015183602001518460400151604051602001610934939291906001600160a01b0393841681526020810192909252909116604082015260600190565b60408051601f19818403018152908290526109529291602001611043565b604051602081830303815290604052905092915050565b600080600061097885856109e8565b9150915061098581610a2d565b509392505050565b6000816001600160a01b0316836001600160a01b03161480156109cd575073dcc703c0e500b653ca82273b7bfad8045d85a4706001600160a01b03841614155b80156109e157506001600160a01b03831615155b9392505050565b6000808251604103610a1e5760208301516040840151606085015160001a610a1287828585610be3565b94509450505050610a26565b506000905060025b9250929050565b6000816004811115610a4157610a41611069565b03610a495750565b6001816004811115610a5d57610a5d611069565b03610aaa5760405162461bcd60e51b815260206004820152601860248201527f45434453413a20696e76616c6964207369676e6174757265000000000000000060448201526064016103a9565b6002816004811115610abe57610abe611069565b03610b0b5760405162461bcd60e51b815260206004820152601f60248201527f45434453413a20696e76616c6964207369676e6174757265206c656e6774680060448201526064016103a9565b6003816004811115610b1f57610b1f611069565b03610b775760405162461bcd60e51b815260206004820152602260248201527f45434453413a20696e76616c6964207369676e6174757265202773272076616c604482015261756560f01b60648201526084016103a9565b6004816004811115610b8b57610b8b611069565b036108cf5760405162461bcd60e51b815260206004820152602260248201527f45434453413a20696e76616c6964207369676e6174757265202776272076616c604482015261756560f01b60648201526084016103a9565b6000807f7fffffffffffffffffffffffffffffff5d576e7357a4501ddfe92f46681b20a0831115610c1a5750600090506003610cc7565b8460ff16601b14158015610c3257508460ff16601c14155b15610c435750600090506004610cc7565b6040805160008082526020820180845289905260ff881692820192909252606081018690526080810185905260019060a0016020604051602081039080840390855afa158015610c97573d6000803e3d6000fd5b5050604051601f1901519150506001600160a01b038116610cc057600060019250925050610cc7565b9150600090505b94509492505050565b80356001600160a01b0381168114610ce757600080fd5b919050565b600060608284031215610cfe57600080fd5b6040516060810181811067ffffffffffffffff82111715610d2f57634e487b7160e01b600052604160045260246000fd5b604052905080610d3e83610cd0565b815260208301356020820152610d5660408401610cd0565b60408201525092915050565b60008083601f840112610d7457600080fd5b50813567ffffffffffffffff811115610d8c57600080fd5b602083019150836020828501011115610a2657600080fd5b600080600080600080600060e0888a031215610dbf57600080fd5b87359650610dd08960208a01610cec565b9550608088013567ffffffffffffffff80821115610ded57600080fd5b610df98b838c01610d62565b9097509550859150610e0d60a08b01610cd0565b945060c08a0135915080821115610e2357600080fd5b50610e308a828b01610d62565b989b979a50959850939692959293505050565b60005b83811015610e5e578181015183820152602001610e46565b50506000910152565b60008151808452610e7f816020860160208601610e43565b601f01601f19169290920160200192915050565b6020815260006109e16020830184610e67565b60008060008060a08587031215610ebc57600080fd5b84359350610ecd8660208701610cec565b9250608085013567ffffffffffffffff811115610ee957600080fd5b610ef587828801610d62565b95989497509550505050565b600080600080600080600080610100898b031215610f1e57600080fd5b88359750610f2f8a60208b01610cec565b9650608089013567ffffffffffffffff80821115610f4c57600080fd5b610f588c838d01610d62565b909850965060a08b0135915080821115610f7157600080fd5b50610f7e8b828c01610d62565b9095509350610f91905060c08a01610cd0565b9150610f9f60e08a01610cd0565b90509295985092959890939650565b8215158152604060208201526000610fc96040830184610e67565b949350505050565b8183823760009101908152919050565b600060208284031215610ff357600080fd5b5051919050565b60006020828403121561100c57600080fd5b815180151581146109e157600080fd5b60006001820161103c57634e487b7160e01b600052601160045260246000fd5b5060010190565b8281526000825161105b816020850160208701610e43565b919091016020019392505050565b634e487b7160e01b600052602160045260246000fdfea2646970667358221220b8698196fe7f58514e6ec70ac51b480efc6ef28a3ce5fa5e7864413d11458af364736f6c63430008100033",
  "linkReferences": {},
  "deployedLinkReferences": {}
}